:020000040800F2
:10000000008000100D8D0008758D0008491402084D
:10001000758D0008758D0008758D000800000000C2
:10002000000000000000000000000000758D0008C6
:10003000758D000800000000758D000859A80108A2
:10004000758D0008758D0008758D0008758D000888
:10005000758D0008758D00087563010879630108C6
:100060007D6301088163010885630108C1E400081C
:10007000D1E40008E1E40008F1E4000801E500082B
:1000800015E5000829E50008758D0008758D000844
:10009000BD040108758D0008758D0008896301088D
:1000A00099F20008ADF20008C1F2000825F200083C
:1000B00039F2000849F200085DF20008C9E10008C1
:1000C000BDE10008E1E10008D5E10008758D0008F8
:1000D000758D000875F500088DF50008A5F5000878
:1000E0008D630108758D0008758D0008758D0008F9
:1000F000758D0008758D000885F20008758D000863
:10010000758D0008758D000871F20008758D000866
:10011000BDF50008758D0008758D0008D10801082F
:1001200051E5000865E5000879E500088DE500085F
:10013000A1E50008758D0008758D0008758D000813
:10014000758D0008758D0008758D0008758D000887
:10015000758D0008758D0008758D0008758D000877
:10016000758D0008758D0008758D0008758D000867
:10017000758D0008758D0008758D0008758D000857
:10018000D5F20008758D0008758D0008758D000882
:10019000758D000800000000758D0008758D000841
:1001A000758D0008758D0008758D0008758D000827
:1001B000F9E10008EDE10008758D0008758D000873
:1001C0003DE50008B5E50008C9E50008DDE50008E3
:0801D000758D0008758D000813
:0801D800287E00000100000078
:1001E00014500020013D0000000040003450002069
:1001F000013C0000000020005450002001390100A3
:1002000000003C0074500020023800000002290069
:10021000945000200237000000022900B450002052
:100220000136010000002800D450002001350000F4
:1002300000007600F4500020013401000000280086
:1002400014510020013201000000520034510020FE
:100250000133000000003100545100200131010041
:1002600000007000745100200130010000002900DE
:1002700094510020012F000000002900B4510020FB
:10028000012B000000004F00D4510020012A000083
:1002900000004E00F45100200129000000004D0034
:1002A000145200200128000000004C0034520020AD
:1002B0000127000000004B005452002001260000DE
:1002C00000004A007452002001250000000049008F
:1002D000945200200124000000004800B452002085
:1002E000012C010000001800D4520020011400006D
:1002F00000007600F4520020010E0000000076009D
:10030000145300200208000002001400345300209F
:080310000207000002001400C6
:1080000010F8012B11F8013B012A28BF9A42F7D042
:10801000D01A7047000000000000000000000000BF
:1080200001F0FF01102A2BDB10F0070F08D010F829
:10803000013B013A8B422DD010F0070F42B3F6D12D
:10804000F0B441EA012141EA014122F007047FF046
:1080500000070023F0E80256083C85EA010586EA9D
:10806000010685FA47F5A3FA87F586FA47F6A5FAD9
:1080700087F68EB9EED1F0BC01F0FF0102F00702E5
:1080800032B110F8013B013A83EA010313B1F8D190
:108090000020704701387047002D06BF3546033871
:1080A000073815F0010F07D1013015F4807F02BFAA
:1080B000013015F4C03F0130F0BC0138704700BFFB
:1080C000034613F8012B002AFBD1181A0138704718
:1080D00081F0004102E000BF83F0004330B54FEA79
:1080E00041044FEA430594EA050F08BF90EA020FE6
:1080F0001FBF54EA000C55EA020C7FEA645C7FEA79
:10810000655C00F0E2804FEA5454D4EB5555B8BF9B
:108110006D420CDD2C4480EA020281EA030382EA0C
:10812000000083EA010180EA020281EA0303362D9E
:1081300088BF30BD11F0004F4FEA01314FF4801C71
:108140004CEA113102D0404261EB410113F0004F83
:108150004FEA03334CEA133302D0524263EB43033A
:1081600094EA050F00F0A780A4F10104D5F1200ED8
:108170000DDB02FA0EFC22FA05F2801841F1000133
:1081800003FA0EF2801843FA05F359410EE0A5F107
:1081900020050EF1200E012A03FA0EFC28BF4CF038
:1081A000020C43FA05F3C01851EBE37101F00045EE
:1081B00007D54FF0000EDCF1000C7EEB00006EEBFB
:1081C0000101B1F5801F1BD3B1F5001F0CD3490885
:1081D0005FEA30004FEA3C0C04F101044FEA4452DC
:1081E00012F5800F80F09A80BCF1004F08BF5FEA63
:1081F000500C50F1000041EB045141EA050130BD43
:108200005FEA4C0C404141EB0101013C28BFB1F554
:10821000801FE9D291F0000F04BF01460020B1FA9F
:1082200081F308BF2033A3F10B03B3F120020CDA72
:108230000C3208DD02F1140CC2F10C0201FA0CF050
:1082400021FA02F10CE002F11402D8BFC2F1200CB5
:1082500001FA02F120FA0CFCDCBF41EA0C0190406B
:10826000E41AA2BF01EB0451294330BD6FEA0404B4
:108270001F3C1CDA0C340EDC04F11404C4F120029F
:1082800020FA04F001FA02F340EA030021FA04F3B1
:1082900045EA030130BDC4F10C04C4F1200220FA08
:1082A00002F001FA04F340EA0300294630BD21FA46
:1082B00004F0294630BD94F0000F83F4801306BF0C
:1082C00081F480110134013D4EE77FEA645C18BF00
:1082D0007FEA655C29D094EA050F08BF90EA020F97
:1082E00005D054EA000C04BF1946104630BD91EA8F
:1082F000030F1EBF0021002030BD5FEA545C05D192
:108300004000494128BF41F0004130BD14F58004D0
:108310003CBF01F5801130BD01F0004545F0FE4144
:1083200041F470014FF0000030BD7FEA645C1ABF79
:10833000194610467FEA655C1CBF0B46024650EAB0
:10834000013406BF52EA033591EA030F41F40021DC
:1083500030BD00BF90F0000F04BF0021704730B562
:108360004FF4806404F132044FF000054FF0000137
:1083700050E700BF90F0000F04BF0021704730B5F8
:108380004FF4806404F1320410F0004548BF4042CD
:108390004FF000013EE700BF42004FEAE2014FEA22
:1083A00031014FEA02701FBF12F07F4393F07F4FFD
:1083B00081F06051704732F07F4208BF704793F000
:1083C0007F4F04BF41F40021704730B54FF4607413
:1083D00001F0004521F000411CE700BF50EA010216
:1083E00008BF704730B54FF000050AE050EA0102BF
:1083F00008BF704730B511F0004502D5404261EB2F
:1084000041014FF4806404F132045FEA915C3FF46F
:10841000D8AE4FF003025FEADC0C18BF03325FEA0C
:10842000DC0C18BF033202EBDC02C2F1200300FABD
:1084300003FC20FA02F001FA03FE40EA0E0021FAE2
:1084400002F11444BDE600BF70B54FF0FF0C4CF4D0
:10845000E06C1CEA11541DBF1CEA135594EA0C0F82
:1084600095EA0C0F00F0DEF82C4481EA030621EABD
:108470004C5123EA4C5350EA013518BF52EA0335F8
:1084800041F4801143F4801338D0A0FB02CE4FF0AA
:108490000005E1FB02E506F00042E0FB03E54FF0DA
:1084A0000006E1FB03569CF0000F18BF4EF0010ED2
:1084B000A4F1FF04B6F5007F64F5407404D25FEACE
:1084C0004E0E6D4146EB060642EAC62141EA555181
:1084D0004FEAC52040EA5E504FEACE2EB4F1FD0CC3
:1084E00088BFBCF5E06F1ED8BEF1004F08BF5FEA41
:1084F000500E50F1000041EB045170BD06F00046F3
:1085000046EA010140EA020081EA0301B4EB5C049F
:10851000C2BFD4EB0C0541EA045170BD41F4801197
:108520004FF0000E013C00F3AB8014F1360FDEBFBC
:10853000002001F0004170BDC4F10004203C35DA98
:108540000C341BDC04F11404C4F1200500FA05F31B
:1085500020FA04F001FA05F240EA020001F00042BC
:1085600021F0004110EBD37021FA04F642EB060132
:108570005EEA430E08BF20EAD37070BDC4F10C045C
:10858000C4F1200500FA04F320FA05F001FA04F220
:1085900040EA020001F0004110EBD37041F100010C
:1085A0005EEA430E08BF20EAD37070BDC4F1200517
:1085B00000FA05F24EEA020E20FA04F301FA05F27F
:1085C00043EA020321FA04F001F0004121FA04F227
:1085D00020EA020000EBD3705EEA430E08BF20EAF7
:1085E000D37070BD94F0000F0FD101F00046400031
:1085F00041EB010111F4801F08BF013CF7D041EAB3
:10860000060195F0000F18BF704703F000465200B6
:1086100043EB030313F4801F08BF013DF7D043EA87
:108620000603704794EA0C0F0CEA135518BF95EA3D
:108630000C0F0CD050EA410618BF52EA4306D1D1C4
:1086400081EA030101F000414FF0000070BD50EAE3
:10865000410606BF1046194652EA430619D094EA6D
:108660000C0F02D150EA013613D195EA0C0F05D157
:1086700052EA03361CBF104619460AD181EA0301AB
:1086800001F0004141F0FE4141F470014FF0000063
:1086900070BD41F0FE4141F4780170BD70B54FF0FE
:1086A000FF0C4CF4E06C1CEA11541DBF1CEA13557E
:1086B00094EA0C0F95EA0C0F00F0A7F8A4EB050460
:1086C00081EA030E52EA03354FEA013100F0888057
:1086D0004FEA03334FF0805545EA131343EA126320
:1086E0004FEA022245EA111545EA10654FEA0026D5
:1086F0000EF000419D4208BF964244F1FD0404F58E
:10870000407402D25B084FEA3202B61A65EB0305E9
:108710005B084FEA32024FF480104FF4002CB6EBA6
:10872000020E75EB030E22BFB61A754640EA0C0026
:108730005B084FEA3202B6EB020E75EB030E22BF66
:10874000B61A754640EA5C005B084FEA3202B6EBA7
:10875000020E75EB030E22BFB61A754640EA9C0066
:108760005B084FEA3202B6EB020E75EB030E22BF36
:10877000B61A754640EADC0055EA060E18D04FEAF4
:10878000051545EA16754FEA06164FEAC30343EA94
:1087900052734FEAC2025FEA1C1CC0D111F4801F61
:1087A0000BD141EA00014FF000004FF0004CB6E75A
:1087B00011F4801F04BF01430020B4F1FD0C88BFF9
:1087C000BCF5E06F3FF6AFAEB5EB030C04BFB6EB04
:1087D000020C5FEA500C50F1000041EB045170BDF7
:1087E0000EF0004E4EEA113114EB5C04C2BFD4EB24
:1087F0000C0541EA045170BD41F480114FF0000EA8
:10880000013C90E645EA060E8DE60CEA135594EA23
:108810000C0F08BF95EA0C0F3FF43BAF94EA0C0F26
:108820000AD150EA01347FF434AF95EA0C0F7FF49B
:1088300025AF104619462CE795EA0C0F06D152EAEF
:1088400003353FF4FDAE1046194622E750EA4106D3
:1088500018BF52EA43067FF4C5AE50EA41047FF4E4
:108860000DAF52EA43057FF4EBAE12E74FF0FF3C49
:1088700006E000BF4FF0010C02E000BF4FF0010C1A
:108880004DF804CD4FEA410C7FEA6C5C4FEA430C93
:1088900018BF7FEA6C5C1BD001B050EA410C0CBFE2
:1088A00052EA430C91EA030F02BF90EA020F002044
:1088B000704710F1000F91EA030F58BF994208BFAB
:1088C00090422CBFD8176FEAE37040F00100704768
:1088D0004FEA410C7FEA6C5C02D150EA013C07D1BF
:1088E0004FEA430C7FEA6C5CD6D152EA033CD3D00A
:1088F0005DF8040B704700BF8446104662468C4604
:108900001946634600E000BF01B5FFF7B7FF002836
:1089100048BF10F1000F01BD4DF808EDFFF7F4FF5F
:108920000CBF012000205DF808FB00BF4DF808EDEA
:10893000FFF7EAFF34BF012000205DF808FB00BF0D
:108940004DF808EDFFF7E0FF94BF012000205DF82F
:1089500008FB00BF4DF808EDFFF7CEFF94BF0120E4
:1089600000205DF808FB00BF4DF808EDFFF7C4FFDD
:1089700034BF012000205DF808FB00BF4FEA410230
:10898000B2F1E04324BFB3F5001CDCF1FE5C0DD96D
:1089900001F0004C4FEAC0024CEA5070B2F1004FB7
:1089A00040EB830008BF20F00100704711F0804FBA
:1089B00021D113F13872BCBF01F00040704741F47F
:1089C00080114FEA5252C2F11802C2F1200C10FA83
:1089D0000CF320FA02F018BF40F001004FEAC12367
:1089E0004FEAD32303FA0CFC40EA0C0023FA02F30B
:1089F0004FEA4303CCE77FEA625307D150EA0133E1
:108A00001EBF4FF0FE4040F44000704701F00040B0
:108A100040F0FE4040F40000704700BF80F000408E
:108A200002E000BF81F0004142001FBF5FEA410346
:108A300092EA030F7FEA226C7FEA236C6AD04FEA46
:108A40001262D2EB1363C1BFD2184140484041408B
:108A5000B8BF5B42192B88BF704710F0004F40F43D
:108A6000000020F07F4018BF404211F0004F41F459
:108A7000000121F07F4118BF494292EA030F3FD025
:108A8000A2F1010241FA03FC10EB0C00C3F1200338
:108A900001FA03F100F0004302D5494260EB4000C7
:108AA000B0F5000F13D3B0F1807F06D340084FEA32
:108AB000310102F10102FE2A51D2B1F1004F40EB27
:108AC000C25008BF20F0010040EA0300704749008F
:108AD00040EB0000013A28BFB0F5000FEDD2B0FA2C
:108AE00080FCACF1080CB2EB0C0200FA0CF0AABF4F
:108AF00000EBC25052421843BCBFD04018437047ED
:108B000092F0000F81F4000106BF80F400000132F2
:108B1000013BB5E74FEA41037FEA226C18BF7FEAC9
:108B2000236C21D092EA030F04D092F0000F08BF0B
:108B30000846704790EA010F1CBF0020704712F0F2
:108B40007F4F04D1400028BF40F00040704712F131
:108B500000723CBF00F50000704700F0004343F096
:108B6000FE4040F4000070477FEA226216BF0846CC
:108B70007FEA23630146420206BF5FEA412390EA8F
:108B8000010F40F4800070474FF0000304E000BF85
:108B900010F0004348BF40425FEA000C08BF704736
:108BA00043F0964301464FF000001CE050EA0102FA
:108BB00008BF70474FF000030AE000BF50EA01020F
:108BC00008BF704711F0004302D5404261EB4101FC
:108BD0005FEA010C02BF84460146002043F0B64321
:108BE00008BFA3F18053A3F50003BCFA8CF2083A46
:108BF000A3EBC25310DB01FA02FC634400FA02FC4F
:108C0000C2F12002BCF1004F20FA02F243EB020055
:108C100008BF20F00100704702F1200201FA02FCB7
:108C2000C2F1200250EA4C0021FA02F243EB0200AA
:108C300008BF20EADC7070477BB972B90029BEBF5B
:108C400000204FF0004106E008BF00281CBF6FF075
:108C500000414FF0FF3000F057B8ADF1080C6DE95E
:108C600004CE002909DB002B1ADB5CF0BDFCDDF82B
:108C700004E0DDE9022304B07047404261EB4101AA
:108C8000002B1BDB5CF0B0FCDDF804E0DDE9022327
:108C900004B0404261EB4101524263EB4303704731
:108CA000524263EB43035CF09FFCDDF804E0DDE936
:108CB000022304B0404261EB41017047524263EB32
:108CC00043035CF091FCDDF804E0DDE9022304B02D
:108CD000524263EB4303704753B94AB9002908BFB6
:108CE00000281CBF4FF0FF314FF0FF3000F00CB8F0
:108CF000ADF1080C6DE904CE5CF076FCDDF804E023
:108D0000DDE9022304B07047704700BF1148854673
:108D10000EF00AFD10481149114A002302E0D45810
:108D2000C4500433C4188C42F9D30E4A0E4C0023AD
:108D300001E013600432A242FBD30C4A0C4C002326
:108D400001E013600432A242FBD305F07FF807F084
:108D5000CDFEFEE700800010000000206021002012
:108D60005A5E070880210020A85A01200030001018
:108D700060460010FEE7704738B50F4B1A6805468D
:108D80000AB9012038BD4FF47A73B3FBF2F30B4AF2
:108D90001068B0FBF3F000F01FFD04460028F0D18E
:108DA0000F2DEED8024629464FF0FF3000F0D4FCDC
:108DB000034B20461D60E5E7000000203000002046
:108DC00004000020094A136843F4807310B503209F
:108DD000136000F0AFFC0F20FFF7CEFF044618B978
:108DE000FFF7C9FF204610BD0124FBE70020024029
:108DF000034A0449136809680B441360704700BFB5
:108E00001045002000000020014B1868704700BF8B
:108E10001045002030B5CC0D04F004041430C1F32B
:108E20000451035907258D4023EA05038A40134363
:108E3000035130BD806800F0010070478068C0F3C6
:108E4000800070477047000037B500230193044647
:108E5000002800F0F380C56D25B9FFF7F3FF256604
:108E600084F8585023689A68900041BF9A6822F0AD
:108E7000204222F03F029A609A68D10032D59A6867
:108E8000D20043D4E26D42F01002E265226E42F05D
:108E90000102226601211846FFF7D0FFE26D02F0C1
:108EA0001002024340F0C680E26D22F4817242F06B
:108EB0000202E2651846FFF7BDFF00283DD1B3F17D
:108EC000A04F02D05E4A934222D14FF0A040FFF75C
:108ED000B1FF02465A48FFF7ADFF0243012A2CD0EA
:108EE000584824E09A68584922F0104222F03F0284
:108EF00042F080529A60554A1268B2FBF1F2019238
:108F0000019A002ABBD0019A013AF8E70021C2E792
:108F10004F48FFF78FFF02464E48FFF78BFF024393
:108F20004D48FFF787FF0243012A06D04B4882686D
:108F3000656822F47C122A438260E568E26B94F84B
:108F400024002A43A5682A43657F012842EA453266
:108F500042EA004202BFA06A00F1FF3042EA40420A
:108F6000E06A20B1256B00F4787028430243DD6885
:108F70003B4828401043D8601A69606B22F0406279
:108F800002431A611846FFF759FF9A6802F0080277
:108F900002432CD1D86894F83820257F520020F461
:108FA000804042EA853220F0020002432569DA60FF
:108FB0002C481A69002D32D042F480321A61D3F85D
:108FC000C02002402A43C3F8C02094F84020012A60
:108FD0002CD1D4E9112518692A436FF38A00024382
:108FE000E06C0243206D024342F001021A616269A3
:108FF000012A05BF186B226A1A6B02F1FF3206BF05
:1090000020F00F00024322F00F021A63E36D23F0F9
:10901000030343F00103E365084603B030BD22F4C7
:1090200080321A61D3F8C0200240CCE71A6922F0DE
:109030000102DBE7E36D43F01003E3650121EBE799
:109040000001005000030050400D030030000020DC
:1090500000040050000500500006005000070050BA
:109060000740F0FF00C0FFFF7047704708B5806AF7
:10907000FFF7FBFF08BD7047836ADA6D12F0500FEF
:1090800010B5DA6D21D142F40072DA651A68116800
:10909000080716D5D16811F4406F0ED1D26812F4CA
:1090A000005F0AD1DA6D22F48072DA65DA6DD104DC
:1090B0005EBFDA6D42F00102DA651846FFF7D4FFB1
:1090C00010BDD26812F0020FEBE7D20603D51846A6
:1090D000FFF7D1FFF4E75B6DBDE810405B6B18470D
:1090E000806A08B5C36D43F04003C365036E43F067
:1090F00004030366FFF7BFFF08BD0000F7B50023B8
:10910000019390F85830012B05460E4600F0D681A9
:109110000468012380F858302046FFF78FFE0028AE
:1091200040F0C6814A683368910901F00C0104F1EE
:10913000300702F01F0278584FF01F0CC3F384630E
:1091400093400CFA02F220EA020213437B502046BD
:10915000FFF774FEA26802F0080202433AD1B36836
:109160003168B3F1004F72D12046FFF753FE6369B7
:1091700043F0004363613769E0683268042F04F10B
:1091800060036CD0716953F827C0C0F3C100400080
:109190008140B94802F0F8420CEA00001043014354
:1091A00041F0004143F827103169B06953F821209C
:1091B00022F08072024343F82120317F30694F1E34
:1091C00053F820207942794122F0007242EA41624C
:1091D00043F820202046FFF72DFE68BBF768336870
:1091E000A64AD4F8B01007F0180CC3F3120022FA04
:1091F0000CF21A4021EA00010A43C4F8B020A04A48
:10920000974219D100287FD19A0E013202F01F0136
:10921000012009294FEA826201FA00F300F2B980C5
:1092200002F0F842884002430B441B0543EA020166
:109230002046B268FFF7EEFD3368924A134240F0D1
:10924000B2800020002385F8583003B0F0BD1A46E4
:109250002046FFF7DFFD636923F000438AE7216EB4
:10926000216EC2F31200C1F38461002838D1C2F329
:109270008462914202BF226E22F000422266626E38
:109280003268616EC2F31200C1F3846168BBC2F33D
:109290008462914202BF626E22F0004262669A6866
:1092A00032689968C2F31200C1F3846110BBC2F343
:1092B0008462914202BF9A6822F000429A60DA68A2
:1092C0003268D968C2F31200C1F38461B8B9C2F33D
:1092D0008462914202BFDA6822F00042DA6079E7E4
:1092E00092FAA2F2B2FA82F2C3E792FAA2F2B2FAC8
:1092F00082F2CEE792FAA2F2B2FA82F2D9E792FAB9
:10930000A2F2B2FA82F2E4E793FAA3F2B2FA82F29C
:10931000013202F01F02092A1ED993FAA3F2B2FA0F
:1093200082F293FAA3F1B1FA81F101320131012005
:10933000920601F01F0100FA01F102F0F8420A431F
:1093400093FAA3F3B3FA83F3034403F01F0303EB8D
:109350004303A3F11E0122E093FAA3F2B2FA82F2D0
:1093600093FAA3F1B1FA81F10132013101209206A1
:1093700001F01F0100FA01F102F0F8420A4393FAEA
:10938000A3F3B3FA83F3034403F01F0303EB430394
:109390004BE7884002F0F842194402431E390905A0
:1093A00041F0007342E7B4F1A04F2FD03648374A5E
:1093B0003749844218BF0A4636489268834202F011
:1093C000E07102D03448834224D110023FF539AF16
:1093D000B4F1A04F1CD0314B9C427FF432AF2C4AE9
:1093E000936823F0E0730B4343F4000393602C4B2A
:1093F0002C4A1B68B3FBF2F30C2253430193019BED
:10940000002B3FF41EAF019B013BF7E71F4AD3E758
:109410001E4AE5E72448834215D1D2013FF511AF3A
:10942000B4F1A04F0DD01848184A194B844218BF08
:109430001A46936823F0E0730B4343F08073936004
:10944000FFE6124AF5E7194883427FF4FAAE530269
:109450003FF5F7AE0C4B9C423FF4F3AE0C4A03F5DC
:109460000073B4F1A04F08BF1A46936823F0E0736D
:109470000B4343F48003E2E700F0FF03FFFF070024
:1094800000007F40000008800001005000030050F1
:1094900000070050000021C31000C09000060050DB
:1094A00030000020400D0300000052C7000084CBB4
:1094B000EA6D42F02002EA651846C3E60220C4E6DF
:1094C000026870B504461046FFF7B4FC08B10020EE
:1094D00070BD9168144B194209D0E36D43F010033D
:1094E000E365236E43F0010323660120F0E79368F0
:1094F0000E4D2B4043F001039360FFF785FC0646B9
:1095000022681368DB07E2D41046FFF793FC20B90A
:1095100093682B4043F001039360FFF775FC801BB9
:109520000228EDD9D9E700BF3F000080C0FFFF7FD0
:109530002DE9F84304460068B0F1A04F0E461746E7
:1095400062D03749374B384A884218BF13469B6868
:10955000FFF774FC814600285FD194F85820012A57
:109560005BD003F01F0840F22125012325FA08F5FE
:109570001D4084F858304DD02046FFF7A1FF002849
:1095800044D1E06D2168264B20F4706020F001008A
:1095900040F480709942E06503D003F580639942FE
:1095A00002D1B8F1000F03D1E36D23F48013E3651A
:1095B000E36D606D13F480531CBF236E23F006032C
:1095C00023661A4BC3621A4B03631A4B43631C2373
:1095D0000B60002384F858304B6843F010034B6055
:1095E000CB6843F00103CB6032463B46403100F08C
:1095F000BFF92268936823F0004323F03F0343F050
:1096000004039360BDE8F883064BA0E784F8589004
:109610000120F7E784F85850FAE70220F2E700BF8C
:10962000000100500003005000070050799000082E
:109630006D900008E1900008026838B504461046B5
:109640009368FFF7F7FB08B9002038BD9907FBD4F2
:10965000936803F00D03012B15D1936823F00043A9
:1096600023F03F0343F00203936003231360FFF7EB
:10967000CBFB054623689B68DB07E5D5FFF7C4FBFA
:10968000401B0228F6D9E36D43F01003E365236E17
:1096900043F0010323660120D7E7000037B500231C
:1096A000019390F85830012B04460D463DD001231C
:1096B00080F85830FFF7C0FFE36D002832D123F463
:1096C000885323F00203226843F00203E3659368A2
:1096D00023F0404323F03F0305F080452B4343F044
:1096E000004393609368002B12DA019B01330193CE
:1096F00001990F4B9942F5D9E36D23F0120343F022
:109700001003E365002384F85830012003B030BD16
:10971000E36D23F0030343F00103E365002384F8C2
:109720005830F3E743F01003F7E70220EEE700BFFD
:1097300001DE04000749CA6822F4E0620302120451
:1097400003F4E063120C134343F0BF6343F40033AC
:10975000CB60704700ED00E0164B30B5DC68C4F319
:109760000224C4F10703251D042B28BF0423062D62
:109770004FF0FF358CBF033C002405FA03F321EAC8
:109780000303A54022EA0502A340002843EA02039E
:10979000ACBF00F16040084A4FEA0313B8BF00F0C5
:1097A0000F00DBB2AABF00F56140135480F800330C
:1097B00030BD00BF00ED00E014ED00E0002807DB45
:1097C0004109044A00F01F000123834042F8213080
:1097D000704700BF00E100E00138B0F1807F0BD29C
:1097E0004FF0E023054A5861F02182F82310002051
:1097F000072298611A6170470120704700ED00E070
:109800004FF0E02304281A690CBF42F0040222F052
:1098100004021A61704770B5D0E913456560446D64
:1098200014B1D0E916456560D0E9105404F01F0664
:109830000124B4406C60046863608368102B0BBF24
:10984000A260A160E160E26070BD000010B5036835
:109850000C490D4C0D4AA34298BF0A46416C21F0B9
:1098600003010A448264DBB2094AC264083B142241
:10987000B3FBF2F3012203F01F0302FA03F30365C3
:1098800010BD00BF0008024007040240200802404B
:109890008008024038B5002857D002682C4B9A4205
:1098A0004FF0140145D82B4B1344B3FBF1F32A4975
:1098B0009B00C0E91013022380F82530D0E9024351
:1098C0000569116823432B4345692B4385692B4365
:1098D000C5692B43056A6FF30E112B430B431360CD
:1098E000FFF7B4FFB4F5804F04BF00234360436823
:1098F000816CDAB20A60D0E91314013B032B4C608F
:109900001ED8164B1649816513449B000121013A6C
:1099100001FA02F200214365C2651960114B5A64D5
:1099200000230122C36380F8243080F825201846E4
:1099300038BD0D4B1344B3FBF1F30C499B00B8E762
:109940000023C0E91533C365EAE70120F0E700BF53
:1099500007040240F8FFFDBF000002403F820010F4
:109960004009024000090240F8FBFDBF000402402C
:1099700070B590F82450012D044637D0012580F8A9
:10998000245090F82550012D4FF000052CD10226CF
:1099900080F82560C56305682E6826F001062E60F4
:1099A000FFF739FF036BBBB12B6843F00E032B604D
:1099B000A36C1A68D20342BF1A6842F480721A601C
:1099C000636D1BB11A6842F480721A602B6843F011
:1099D00001032B60002070BD2B6823F004032B6073
:1099E0002B6843F00A03E2E780F824500220F2E7F4
:1099F00008B590F82530022B09D00423C363002258
:109A0000012380F8253080F82420184608BD03681B
:109A10001A6822F00E021A601A6822F001021A6017
:109A2000826C136823F480731360D0E9101303F081
:109A30001F02012393404B60D0E913325A60436DFB
:109A400033B11A6822F480721A60D0E916325A6073
:109A5000012380F82530002380F82430836B03B184
:109A600098470020D2E70000094A536943F4802355
:109A700010B55361EFF3108272B60023CC58C45076
:109A80000433B3F5807FF9D182F3108810BD00BF95
:109A900000200240064B5A69002ABFBF054A9A605F
:109AA00002F188329A60BABF5869C00F002070472F
:109AB0000020024023016745044B5A6942F00042EE
:109AC0005A615869C043C00F704700BF0020024070
:109AD00070B50646FFF798F90F4C05462369DA037F
:109AE0000BD423694CF2FA3213400DD00B494A686B
:109AF0001A434A600120236170BDFFF785F9401BBE
:109B0000B042EBD90320F7E72369DB0744BF012309
:109B100023610020F0E700BF002002400800002081
:109B20002DE9F0471D4E99463378012B05460F4627
:109B3000904631D04FF0010A4FF47A7086F800A0B9
:109B4000FFF7C6FF0446B8B97060CDB9144A53692F
:109B500043EA0A035361C7F80080BFF36F8FC7F869
:109B6000049054464FF47A70FFF7B2FF24B10C4AC8
:109B7000536923EA0403536100233370BDE8F0877F
:109B80006B1E012BEED841463846FFF76DFFAB1E2A
:109B90005D425D41AC04E5E70220EFE708000020EC
:109BA000002002400D4B1A6A520211D5C10742BF74
:109BB0005A6942F004025A61820703D55A6942F495
:109BC00000425A61054A536943F480335361704738
:109BD0005A6942F4004242F00402F2E700200240D7
:109BE0000F4B1A6A12F4800F5A6913D122F40062E3
:109BF0005A615A69C00022F47E7200F4FF6010437B
:109C000058615A6942F002025A615A6942F480323C
:109C10005A617047C907E9D442F40062E8E700BF1F
:109C2000002002401348037FDAB203F0FD03012B4A
:109C30000CD1114B196841F400611960196821F4C5
:109C400000611960196841F400711960931E012BBD
:109C50000CD8094B1A6842F480521A601A6822F430
:109C600080521A601A6842F480621A6000230377F7
:109C7000704700BF08000020002002402DE9F84393
:109C8000344D2B78012B0646884660D001274FF4CF
:109C90007A702F70FFF71CFF044640BB2E4B6860A4
:109CA0001A6812F4007F1A6826D022F400721A6033
:109CB0001A68510506D51A6822F480621A600323D7
:109CC0002B7700E02F773368012B1FD17068FFF7E7
:109CD00069FF4FF47A70FFF7FBFE1F4A536923F4C4
:109CE000004323F0040304465361FFF79BFF002366
:109CF0002B702046BDE8F883520505D51A6822F47A
:109D000080621A600223DBE72877DCE74FF0FF333D
:109D1000C8F80030B768DFF84090D6E902210A445D
:109D2000BA42E2D971683846FFF75AFF4FF47A70A9
:109D3000FFF7CEFED9F81420084B1A40C9F81420BA
:109D400018B1C8F800700446CFE70137E5E70224F0
:109D5000CFE700BF080000200020024005FCFFFF05
:109D60002DE9F74FDFF87C815C4C00234FF00F09A1
:109D70000A6832FA03F502D103B0BDE8F08F01257D
:109D800005FA03FA1AEA020200F09C804D6825F0F9
:109D9000100EBEF1020F11D1DF0800EB870703F0B0
:109DA000070C3E6A4FEA8C0C09FA0CFB26EA0B0BF7
:109DB0000E6906FA0CF646EA0B063E62D0F800B0D1
:109DC0004FEA430C032606FA0CF72BEA070BFE4377
:109DD00005F0030707FA0CF70EF1FF3E47EA0B0701
:109DE000BEF1010F076010D8876806EA070ECF683A
:109DF00007FA0CF747EA0E078760476827EA0A0E5A
:109E00002F099F4047EA0E074760C76837408E68B2
:109E100006FA0CF63E43C660EE0053D5D8F86060F3
:109E200046F00106C8F86060D8F8606023F00307C8
:109E300007F1804706F0010607F58037019603F029
:109E4000030C019EBE684FEA8C0C09FA0CFEB0F1BF
:109E5000904F26EA0E0E37D0214EB04236D006F58E
:109E60008066B04234D006F58066B04232D006F546
:109E70008066B04230D006F58066B04214BF062638
:109E8000052606FA0CF646EA0E06BE602668D7439B
:109E900015F4803F0CBF3E4016432660666815F4FB
:109EA000003F0CBF3E4016436660A66815F4801F55
:109EB0000CBF3E401643A660E668AD0254BF3E406C
:109EC0001643E660013353E70026DAE70126D8E7B8
:109ED0000226D6E70326D4E70426D2E70004014091
:109EE000000400480010024000690840003818BF14
:109EF000012070470AB181617047816270474369F0
:109F00000B4214BF81628161704703689A699107AF
:109F100044BF00229A629A69D2075EBF9A6942F0F2
:109F200001029A617047000030B5039D046845EA5C
:109F300002421A43054B6068C1F3090143EA5553D5
:109F40000A4320EA03000243626030BDFF63FF035F
:109F500011F0010307D090F8413003F02803282BBB
:109F600014BFF22342238A0709D590F8412002F05A
:109F70002802282A0CBF43F0440343F0F4034A07A5
:109F800001680A6848BF43F0B80322EA03030B6084
:109F90007047F8B503680446986910F010000E4643
:109FA000174617D1F8BD721C15D0FEF72DFFC01B48
:109FB000864200D376B9636C43F0200363642023A8
:109FC00084F84130002384F84230002384F8403084
:109FD0000120E7E72568AB699B06E4D5102320261E
:109FE000EB612046EE61FFF790FF6B6823F0FF7393
:109FF00023F48B3323F4FF7323F001036B60636C52
:10A0000043F00403636484F84160DBE770B5044601
:10A010000D46164623689B699B0701D5002019E071
:10A02000324629462046FFF7B4FF90B96A1CF1D0AA
:10A03000FEF7EAFE801BA8420DD9636C43F02003B3
:10A040006364202384F84130002384F8423084F88C
:10A050004030012070BD002DDCD1EEE770B5044624
:10A060000D46164623689B699B0601D5002017E024
:10A07000324629462046FFF78CFF80B9FEF7C4FE22
:10A08000801BA8420DD9636C43F020036364202336
:10A0900084F84130002384F8423084F840300120B5
:10A0A00070BD002DDED1EEE770B504460D461646B4
:10A0B00023689B695B070ED4324629462046FFF78A
:10A0C00068FFF0B923689A6991061CD59A6952070E
:10A0D00003D5228D0AB1002070BD2021D9615A68B4
:10A0E00022F0FF7222F48B3222F4FF7222F001027E
:10A0F0005A600023636484F8411084F8423084F885
:10A1000040300120E8E7FEF77FFE801BA84208D917
:10A11000636C43F020036364202384F84130002300
:10A12000EDE7002DC4D1F3E72DE9F041069F044689
:10A13000884616461D462268936938EA03030CBF19
:10A1400001230023B34201D0002013E06B1CF3D0A5
:10A15000FEF75AFEC01BA8420ED9636C43F02003E1
:10A160006364202384F84130002384F8423084F86B
:10A1700040300120BDE8F081002DDCD1EDE700008A
:10A180002DE9F341DDE908781E46164B009305469C
:10A1900014464FF08073F2B2FFF7C6FE42463946CE
:10A1A0002846FFF733FFC8B9012E2B680CD1E4B263
:10A1B0009C6200223B4680212846CDF8208002B0D8
:10A1C000BDE8F041FFF7B0BF220A9A623946424625
:10A1D0002846FFF71BFF08B92B68E8E7012002B00B
:10A1E000BDE8F081002000802DE9F341DDE9087829
:10A1F0001E46164B0093054614460023F2B2FFF7A5
:10A2000093FE424639462846FFF700FFC8B9012EA3
:10A210002B680CD1E4B29C6200223B4640212846C8
:10A22000CDF8208002B0BDE8F041FFF77DBF220AE3
:10A230009A62394642462846FFF7E8FE08B92B687D
:10A24000E8E7012002B0BDE8F08100BF00200080F7
:10A25000704710B5044600284AD090F8413003F00A
:10A26000FF021BB980F84020FFF7F2FF242384F897
:10A27000413023681A6822F001021A60626822F0F5
:10A2800070621A619A6822F400429A60D4E902214D
:10A29000012924D142F400429A605A6842F00072C7
:10A2A00042F400425A60DA6822F40042DA60D4E9EB
:10A2B00004210A43A16942EA0122DA60D4E90721B4
:10A2C0000A431A601A6842F001021A600020202333
:10A2D000606484F84130206384F8420010BD42F489
:10A2E000044202299A6004BF4FF400625A60D4E726
:10A2F0000120F3E72DE9F347984690F841300A9F93
:10A30000202B04460E46914640F0868090F840305F
:10A31000012B00F081804FF0010A80F840A0FEF789
:10A3200073FD19230546009052464FF40041204624
:10A33000FFF7FAFE18B1012002B0BDE8F087212333
:10A3400084F84130102384F842306064A4F82A80F5
:10A35000638DC4F824909BB2FF2B60632F4B26D9EA
:10A36000FF22228500934FF0807331462046FFF78D
:10A37000DBFD638D9BB22A4639462046FBB9FFF7C9
:10A380006DFE0028D7D123682021D9615A6822F0B8
:10A39000FF7222F48B3222F4FF7222F001025A6023
:10A3A00084F8411084F8400084F84200C4E7628DCC
:10A3B00092B2228500934FF00073D2B2D5E7FFF737
:10A3C00025FE0028B7D1636A226813F8011B916249
:10A3D0006362638D228D013B9BB26385638D013A7D
:10A3E00092B29BB22285002BC3D0002AC1D1009526
:10A3F0003B4680212046FFF797FE00289BD1638DC6
:10A400009BB2FF2B03D9FF2222850090ABE7628D20
:10A4100092B222850090CEE702208DE700200080D6
:10A420002DE9F347984690F841300A9F202B0446C7
:10A430000E46914640F0878090F84030012B00F0A6
:10A4400082804FF0010A80F840A0FEF7DDFC19235E
:10A450000546009052464FF400412046FFF764FE47
:10A4600018B1012002B0BDE8F087222384F8413002
:10A47000102384F842306064A4F82A80638DC4F805
:10A4800024909BB2FF2B6063304B26D9FF2222859C
:10A4900000934FF0807331462046FFF745FD638DF2
:10A4A0009BB22A4639462046FBB9FFF7D7FD002864
:10A4B000D7D123682021D9615A6822F0FF7222F493
:10A4C0008B3222F4FF7222F001025A6084F84110AC
:10A4D00084F8400084F84200C4E7628D92B222857D
:10A4E00000934FF00073D2B2D5E7FFF7DDFD0028EF
:10A4F000B7D123685A6A636A1A70636A228D01337E
:10A500006362638D013B9BB26385638D013A92B2B6
:10A510009BB22285002BC2D0002AC0D100953B46B9
:10A5200080212046FFF700FE00289AD1638D9BB260
:10A53000FF2B03D9FF2222850090AAE7628D92B2F9
:10A5400022850090CDE702208CE700BF0024008028
:10A550002DE9F74F9A4690F84130BDF834B0DDF858
:10A560003880202B04460E46914640F0A4800C9B78
:10A5700013B1BBF1000F06D14FF4007363640120E7
:10A5800003B0BDE8F08F90F84030012B00F09380CD
:10A59000012780F84070FEF737FC3A4600900546E8
:10A5A00019234FF400412046FFF7BEFD074600285F
:10A5B000E5D1212384F84130402384F842300C9BBC
:10A5C000606463626063A4F82AB05346CDE90085F5
:10A5D0004A4631462046FFF7D3FD10B184F840705B
:10A5E000CDE7638D9BB2FF2B55D9FF2222854FF01B
:10A5F0008073009031462046FFF796FC2A4641467C
:10A600002046FFF703FD0028B9D1636A226813F8DA
:10A61000011B91626362638D228D013B9BB2638556
:10A62000638D013A92B29BB22285ABB1A2B900957B
:10A63000434680212046FFF777FD00289FD1638D98
:10A640009BB2FF2B2FD9FF2222854FF08073009001
:10A6500031462046FFF768FC638D9BB2002BCDD1BD
:10A660002A4641462046FFF7F9FC002887D1236897
:10A670002021D9615A6822F0FF7222F48B3222F431
:10A68000FF7222F001025A6084F8411084F8400001
:10A6900084F8420074E7628D92B222854FF0007315
:10A6A0000090D2B2A6E7628D92B222854FF000737D
:10A6B0000090D2B2CCE7022062E700002DE9F74F0C
:10A6C0009A4690F84130BDF834B0DDF83880202B40
:10A6D00004460E46914640F0A8800C9B13B1BBF196
:10A6E000000F06D14FF400736364012003B0BDE88E
:10A6F000F08F90F84030012B00F09780012780F810
:10A700004070FEF781FB3A460090054619234FF44E
:10A7100000412046FFF708FD07460028E5D1222327
:10A7200084F84130402384F842300C9B60646362BB
:10A730006063A4F82AB05346CDE900854A46314605
:10A740002046FFF751FD10B184F84070CDE7638DCE
:10A750009BB2FF2B364B58D9FF22228500934FF036
:10A76000807331462046FFF7DFFB00954346002209
:10A7700004212046FFF7D8FC0028B6D123685A6A86
:10A78000636A1A70636A228D01336362638D013BD1
:10A790009BB26385638D013A92B29BB22285ABB1C5
:10A7A000A2B90095434680212046FFF7BDFC002852
:10A7B0009BD1638D9BB2FF2B2FD9FF2222854FF0B7
:10A7C0008073009031462046FFF7AEFB638D9BB24D
:10A7D000002BCAD12A4641462046FFF73FFC0028FD
:10A7E00083D123682021D9615A6822F0FF7222F4B4
:10A7F0008B3222F4FF7222F001025A6084F8411079
:10A8000084F8400084F8420070E7628D92B222859D
:10A810000093D2B24FF00073A3E7628D92B222850B
:10A820004FF000730090D2B2CCE702205EE700BF89
:10A83000002400800268436B9169126803B11847D5
:10A8400070477047704738B5002580F8425090F83F
:10A850004130292B0CD1282380F841302123036378
:10A860000121FFF775FB80F84050FFF7EAFF38BD84
:10A8700090F841302A2BFAD1282380F84130222346
:10A8800003630221FFF764FB80F84050FFF7DAFF13
:10A89000EDE7704790F8412002F02802282AF8B529
:10A8A000036832D19E69C2689D699968DF682D0C82
:10A8B000022AC6F3004605F0FE051ED185EAD11531
:10A8C00015F00605C1F309020ED1816C01318164D6
:10A8D000816C022907D108218564D96180F8405034
:10A8E0003146FFF7D6FFF8BD0421FFF731FB002307
:10A8F00080F8403007F0FE02F2E70421FFF728FB62
:10A90000002380F840302A46EAE70822DA61002373
:10A9100080F84030E7E7704708B5154BC362202246
:10A9200000230363436380F8412080F842304B07E3
:10A9300012D503685A6A436A1A70436A0133436244
:10A94000038D4BB1013B0385438D013B9BB2438596
:10A95000436C43F0040343640721FFF7F9FA0368EB
:10A960001022DA61002380F84030FFF7D4FF08BDE1
:10A970000000FFFF7047704770B5314A90F84130D2
:10A98000002580F84250C2624585426C283B0A434C
:10A99000022B0446426421D80321FFF7D9FA282369
:10A9A00080F84130274B05636363236819681A6890
:10A9B00011F480411FD0A06B22F480421A6000285D
:10A9C00037D0214B8363002384F84030FFF710F821
:10A9D00078B3A06B836BBDE8704018470721FFF781
:10A9E000B7FA90F84130602B1CBF202380F841302B
:10A9F00000230363D8E712F400420ED01A68E06B1C
:10AA000022F400421A60A0B10F4B836384F8401017
:10AA1000FEF7EEFF68B1E06BDCE794F84130602BA5
:10AA200008D1202384F8413084F840202046FFF7E5
:10AA3000A2FF70BD84F840202046FFF79BFFF8E797
:10AA40000000FFFF41AB0008B5AC0008F8B5056891
:10AA500020232F68EB610E460721FFF779FA6B6818
:10AA600043F400436B606B6823F0FF7323F48B3374
:10AA700023F4FF7323F001036B60FFF746FA7904B8
:10AA8000044633D5836B1BB11B685B689BB263853F
:10AA900073070FD5636A6A6A1A70636A0133636267
:10AAA000238D26F004062BB1013B2385638D013BEA
:10AAB0009BB26385638D9BB21BB1636C43F004034F
:10AAC00063640023236384F84230656C63638DB153
:10AAD000616C2046FFF750FF94F84130282B1AD1C3
:10AAE00031462046BDE8F840FFF716BF3A04CFD5FF
:10AAF000C36BC8E7E36A13F5803F0DD02046FFF72C
:10AB0000A2FE0E4BE362202384F8413084F84050CB
:10AB10002046FFF700FFF8BD94F8413084F840501C
:10AB2000222B4FF0200384F84130204602D1FFF75A
:10AB300089FEF0E7FFF785FEEDE700BF0000FFFFAD
:10AB400070B5164690F84020C36A012A04460D46A7
:10AB50007ED0012280F84020CA0638D5F20636D5CC
:10AB6000428D92B22ABB90F84120282A10D1B3F12D
:10AB7000007F0DD1FFF7D0FEAA0605D5B30603D599
:10AB800029462046FFF762FF002084F8400070BD90
:10AB900094F84110226829294FF01001D161EBD1BE
:10ABA00013F5803FE8D02046FFF7AFF9FFF74BFEE3
:10ABB000E2E702681021D161426C33F0807342F009
:10ABC00004024264D8D1416CFFF7D6FED4E76A078D
:10ABD0001DD570071BD5628D92B27AB12268516A79
:10ABE000626A1170626A01326262228D013A2285C4
:10ABF000628D013A92B225F004056285628D92B2AF
:10AC0000002AB9D113F5803FB6D02046CEE72907F8
:10AC100005D5320703D52046FFF73CFEACE7A80771
:10AC2000AAD5B107A8D5628D92B26AB1636A2268CB
:10AC300013F8011B91626362638D013B9BB26385D4
:10AC4000238D013B238597E733F0807394D1DCE7B4
:10AC500002209CE7036899691A6810B4CC0508D5EE
:10AC6000140606D5446C44F0010444644FF4807427
:10AC7000DC614C0508D5140606D5446C44F0080484
:10AC800044644FF48064DC61890508D5120606D55A
:10AC9000426C42F0020242644FF40072DA61416C8D
:10ACA00011F00B0F03D05DF8044BFFF765BE5DF8A4
:10ACB000044B7047806A08B5826B00239363C26BB4
:10ACC000936390F84130602B05D1202380F8413008
:10ACD000FFF751FE08BDFFF74DFEFBE710B590F8FA
:10ACE0004120202A0346D4B21CD190F84020012AEA
:10ACF00018D0242280F841200268106820F001005A
:10AD00001060106820F480501060106801431160DA
:10AD10001168002041F00101116083F8414083F87F
:10AD2000400010BD0220FCE770B5044686B0002844
:10AD300057D090F8293203F0FF021BB980F828227F
:10AD400005F0C2FB0323206884F8293202F090FB4F
:10AD50000021656801260846CBB29D4201F1010140
:10AD60001ED800200246C3B29D4200F1010026D841
:10AD700004F110060FCE6D460FC533682B60231DFE
:10AD80000ECB206802F07EFB002384F824300123E0
:10AD900084F82932E369012B1FD0002006B070BD72
:10ADA00004EB4312C2E90E0082F82830D386023346
:10ADB0005B0182F8296082F82B00E050CCE704EBBD
:10ADC0004311C1E94E2281F828310A335B0181F831
:10ADD000292181F82B21E250C5E7204600F07DFBB8
:10ADE000DBE70120DAE710B590F82832012B0446A2
:10ADF0000CD0012380F82832006802F0F7FD2068AB
:10AE000002F02BFB002084F8280210BD0220FCE792
:10AE100010B590F82822012A04460BD0012280F8B0
:10AE2000282280F82410006802F0DAFD002084F85F
:10AE3000280210BD0220FCE770B5054601F00700AE
:10AE400011F0800F4FEA401414BF04F1280104F5FB
:10AE5000947105EB401615BF4919491901240024C6
:10AE600014BF86F8294086F829410A614A7808709B
:10AE7000CB7002B1C881022B04BF00230B7195F87F
:10AE80002832012B09D00123286885F8283202F0E6
:10AE900017FB002085F8280270BD0220FCE701F0B6
:10AEA000070211F0800F4FEA421310B514BF03F1EF
:10AEB000280103F59471044618BF091900EB4210EC
:10AEC0000BBF09190123002380F8293008BF80F83F
:10AED00029310A7094F82832012B09D00123206807
:10AEE00084F8283202F040FC002084F8280210BDCB
:10AEF0000220FCE738B501F0070100EB4114002502
:10AF000084F8281184F82951C4E94F23C4F8445126
:10AF100004F59471006802F089FD284638BD01F0FF
:10AF2000070100EB4110D0F84401704738B501F03B
:10AF3000070100EB4114C4E90F23012384F8281012
:10AF4000002584F82930214665642831006802F024
:10AF50006DFD284638BD00002DE9F0470446006825
:10AF600002F04FFD010408D5C54D40F68F762068EC
:10AF7000B0F844301A0400F1D080206802F041FD9E
:10AF800042050FD52268B2F8443023F480631B04D5
:10AF90001B0C2046A2F8443005F0E9FA00212046B7
:10AFA000FFF736FF206802F02CFD4304226807D526
:10AFB000B2F8443023F480431B041B0CA2F8443045
:10AFC000104602F01EFD8704226807D5B2F844300F
:10AFD00023F400531B041B0CA2F84430104602F06B
:10AFE00010FDC60426D52268B2F8403023F00403D1
:10AFF0001B041B0CA2F84030B2F8403023F00803C9
:10B000001B041B0CA2F8403094F86032012B05D1D0
:10B01000002184F86012204600F075FA204605F001
:10B02000C9FA2268B2F8443023F480531B041B0C85
:10B03000A2F84430206802F0E4FC05051DD5206824
:10B04000B0F840309BB243F00803A0F84030B0F8AD
:10B05000443023F400631B041B0CA0F84430B0F808
:10B0600040309BB243F00403A0F8403002F0C9FC2A
:10B07000C00402D4204605F08DFA206802F0C1FC1D
:10B08000010629D52368B3F8442022F08002120477
:10B09000120CA3F8442094F86022002A40F0998111
:10B0A000B3F8402092B242F00402A3F84020B3F873
:10B0B000402092B242F008020121A3F8402084F817
:10B0C0006012B3F85430C3F38D0303F03C03C4F8AB
:10B0D0006432204600F017FA206802F092FC8205E4
:10B0E0000BD52268B2F8443023F400731B041B0C08
:10B0F000A2F84430204605F036FA206802F081FCC0
:10B10000C30508D52268B2F8443023F480731B04C9
:10B110001B0CA2F84430BDE8F087B0F84470B9B217
:10B1200017F00F0740F0B08011F0100103882AD10A
:10B130009BB22B4043F40043038094F82820B0F8DE
:10B14000503000EBC20212FA83F3E26BB3F8023420
:10B15000C3F309031A446364E263204605F0FCF973
:10B1600094F82430002B3FF402AF226C002A7FF4C5
:10B17000FEAE94F82430216843F08003A1F84C30EF
:10B1800084F82420F3E69AB21B0520D594F82821F0
:10B19000B0F8503000EBC20212FA83F304F50C71E0
:10B1A000B3F80634B4F82E21C3F30903C4F84431CC
:10B1B00002F00CFD2268138823F070031B051B0DA1
:10B1C00043F080031380204605F0B8F9CFE617045A
:10B1D0007FF5CDAE038823F070031B051B0D43F0F4
:10B1E0008003038094F82821B0F8503000EBC202AD
:10B1F00012FA83F3B3F80634C3F30903C4F84431F5
:10B2000063B1B4F82E21D4F83C1102F0DFFCD4F87D
:10B210003C31D4F844211344C4F83C310021204689
:10B2200005F092F92268D4F83871B2F8501002F2A1
:10B23000064089B2B7B9435A23F4F8431B041B0CE8
:10B2400043F400434352138823F4804323F07003F4
:10B250001B041B0C83F4405343F4004343F080036E
:10B26000138084E63D2F95BF07F00103054B03EBE8
:10B2700057037F0994BF9B0243EA87239BB2E1E710
:10B280000F8FFFFF0080FFFF30F8273019041FFAEF
:10B2900083FA3DD530F82730334043F0800304EB88
:10B2A000471220F8273092F8283192F834E1D2F88A
:10B2B0003C114FEA47194FEAC30CBEF1000F4CD1C5
:10B2C000B0F850301CFA83F30344B3F80684C8F393
:10B2D0000908B8F1000F04D0B2F82E21434602F05D
:10B2E00075FCA144D9F84431D9F83C2199F82811CA
:10B2F0004344C9F84431D9F840314244C9F83C21AB
:10B300001BB1D9F8380180455CD2204605F01CF904
:10B310001AF0800F3FF42BAE226832F827309BB230
:10B320002B4043F4004322F8273004EB4717B2F8D0
:10B33000503097F8281002EBC10212FA83F3FA6B2F
:10B34000B3F80234C3F309031A447B643B6CFA6319
:10B350002046DBBB05F000F909E630F8233013F492
:10B36000804FB0F850301CFA83F303441FD0B3F879
:10B370000284C8F30908B8F1000F04D0B2F83021F4
:10B38000434602F023FC04EB0903226893F82811DA
:10B3900032F8213023F4E04323F070031B041B0C2C
:10B3A00043F4004343F0C00322F8213099E7B3F897
:10B3B0000684C8F30908B8F1000FE4D0B2F83221CE
:10B3C0004346DEE72046FFF795FDA1E7FFF7AEFD18
:10B3D000CDE5204605F0DEF87EE600BF38B54368CF
:10B3E00001F007059D42044628D80B061DD56B01C8
:10B3F00003F1280103440122014483F82920012399
:10B400008B700D7094F828229A4219D0206884F825
:10B41000283202F07CFA25B9206804F50C7102F09C
:10B42000F4FA002084F8280238BD4B0103F594712A
:10B4300003440022014483F82921E0E70120F3E7D7
:10B440000220F1E738B5436801F00F029A42044642
:10B4500028D801F0070211F0800F4FEA421315BF00
:10B4600003F1280103F594710919091900EB421041
:10B4700014BF012300234FF0000514BF80F82930CA
:10B4800080F829318D700A7094F82832012B0BD086
:10B490000123206884F8283202F059FA84F82852EF
:10B4A000284638BD0120FCE70220FAE711F0800FA2
:10B4B0001BBF01F0070100EB411000EB41102830E9
:10B4C00008BF00F5947099B21AB90273C1800020C8
:10B4D0007047012202738360F9E703460121026885
:10B4E000C0F86812002083F86002B2F854309BB2B2
:10B4F0000B43A2F85430B2F854309BB243F002032D
:10B50000A2F8543070477047024A136843F48073BE
:10B510001360704700700040284B1A6818BB02F493
:10B52000C062B2F5806FD3F8802022F48072C3F835
:10B53000802040D11A6822F4C06242F400721A607E
:10B540001F4A126832214A431E49B2FBF1F201320E
:10B550005969490500D522B95B6958052BD50320E7
:10B560007047013AF4E7B0F5007F1FD102F4C062E2
:10B57000B2F5806FD3F8802042F48072C3F8802047
:10B5800019D11A6822F4C06242F400721A600C4A9F
:10B59000126832214A430B49B2FBF1F20132596978
:10B5A0004905D9D5002AD7D0013AF8E722F4C0627C
:10B5B00042F480621A600020704700BF00700040B3
:10B5C0003000002040420F002DE9F341044640B313
:10B5D0000368D90714D423689A075BD42368190732
:10B5E00000F1A38023685A0700F1CA8023689A06F5
:10B5F00000F13181E369002B40F05C81002028E0FC
:10B60000A04DAB68EA6803F00C030C2B0BD102F0E1
:10B610000303032B09D12B689B03DCD56368002B44
:10B62000D9D1012015E0082BF4E76368B3F5803F1A
:10B6300012D12B6843F480332B60FDF7E5FB0646FF
:10B640002B689F03C7D4FDF7DFFB801B6428F7D965
:10B65000032002B0BDE8F081B3F5A02F04D12B6820
:10B6600043F480232B60E4E72A6822F480322A60C6
:10B670002A6822F480222A60002BDED1FDF7C4FB69
:10B6800006462B689903A6D5FDF7BEFB801B6428F0
:10B69000F7D9DDE77B4DAB68EA6803F00C030C2BB0
:10B6A00016D102F00303022B14D12B685A0502D5E0
:10B6B000E368002BB5D06B68226923F0FE4343EAB0
:10B6C00002636B600F20FDF757FB002886D0A8E7C8
:10B6D000042BE9E7E368BBB12B6843F480732B606C
:10B6E000FDF792FB06462B685B0507D56B68226960
:10B6F00023F0FE4343EA02636B606FE7FDF784FBD0
:10B70000801B0228EFD9A3E72B6823F480732B60FA
:10B71000FDF77AFB06462B685F057FF55FAFFDF707
:10B7200073FB801B0228F6D992E76369554D9BB1E4
:10B73000D5F8943043F00103C5F89430FDF764FB6D
:10B740000646D5F894309B073FF54CAFFDF75CFB00
:10B75000801B0228F5D97BE7D5F8943023F001034C
:10B76000C5F89430FDF750FB0646D5F894309F0796
:10B770007FF538AFFDF748FB801B0228F5D967E756
:10B78000404DAB6DD80027D4AB6D43F08053AB6513
:10B79000AB6D03F080530193019B01273A4E336850
:10B7A000D9051BD5A368012B29D1D5F8903043F0DA
:10B7B0000103C5F89030FDF727FB41F288380646B3
:10B7C000D5F890309B0740D5002F3FF40FAFAB6DFD
:10B7D00023F08053AB6509E70027DFE7336843F4C4
:10B7E00080733360FDF710FB80463368DA05D9D4E7
:10B7F000FDF70AFBA0EB08000228F6D928E7052B85
:10B8000006D1D5F8903043F00403C5F89030CCE76A
:10B81000D5F8902022F00102C5F89020D5F89020AC
:10B8200022F00402C5F89020002BC4D1FDF7ECFAF9
:10B8300041F288380646D5F890309907C4D5FDF70F
:10B84000E3FA801B4045F6D902E7FDF7DDFA801BDD
:10B850004045B5D9FCE6A3690A4DBBB1D5F898308F
:10B8600043F00103C5F89830FDF7CEFA0646D5F847
:10B8700098309B073FF5BEAEFDF7C6FA801B022845
:10B88000F5D9E5E60010024000700040D5F8983088
:10B8900023F00103C5F89830FDF7B6FA0646D5F84F
:10B8A00098309F077FF5A6AEFDF7AEFA801B022801
:10B8B000F5D9CDE6484DAA6802F00C020C2A57D003
:10B8C000022B2B6823F080732B603AD1FDF79CFA92
:10B8D00006462B6899012ED4EA68404B1340226A31
:10B8E0001343A26A43EA0223E26A43EAC263626A3A
:10B8F000013A43EA0213226B5208013A43EA4253E7
:10B90000626B5208013A43EA4263EB602B6843F0F2
:10B9100080732B60EB6843F08073EB60FDF774FA83
:10B9200004462B689A013FF569AEFDF76DFA001BDE
:10B930000228F6D98CE6FDF767FA801B0228C8D9E1
:10B9400086E6EB6823F00303EB60EB6823F0887373
:10B9500023F48033EB60FDF757FA04462B689B0114
:10B960007FF54CAEFDF750FA001B0228F6D96FE6C2
:10B97000012B3FF456AEEB68226A03F003019142BB
:10B980007FF44FAE616A03F0F0020139B2EB011FA0
:10B990007FF447AEA16A03F4FE42B2EB012F7FF4BD
:10B9A00040AEE16A03F07842B2EBC16F7FF439AE8A
:10B9B000226B520803F4C001013AB1EB425F7FF4FD
:10B9C00030AE626B5208013A03F0C063B3EB426FD2
:10B9D00014BF012000203CE6001002400C809F01B3
:10B9E000174B9A6802F00C02042A23D09A6802F0DE
:10B9F0000C02082A20D09A6802F00C020C2A1DD1F1
:10BA0000D968DA68D868DB6801F00301C3F34163E1
:10BA10000329C2F30312C0F3062003F101030CBF94
:10BA2000084909495B000132B1FBF2F25043B0FB17
:10BA3000F3F0704704487047024870470020704791
:10BA40000010024000127A000024F4002DE9F843AF
:10BA50000E46054610B90120BDE8F8836C4A13680C
:10BA600003F00F038B4244D3296811F001084BD136
:10BA70002A68910740F1A680664B12F0040F1EBFA2
:10BA8000996841F4E0619960120741BF9A6822F415
:10BA90007C5242F4E0629A609A68A96822F0F0024F
:10BAA0000A439A605A4C236803F00F03B34200F232
:10BAB00092802A68574C12F0040F40F0A2801307BE
:10BAC00006D5A3682A6923F4605343EAC203A3603E
:10BAD000FFF786FFA368504AC3F30313D35C03F058
:10BAE0001F03D8404D4B1860BDE8F8430F20FDF709
:10BAF00043B9136823F00F030B431360136803F07B
:10BB00000F038B42A7D1AFE76F68424C032F236826
:10BB100049D19B019FD5E368E26803F00303032B3F
:10BB2000E3680CBF3E483F48C2F30312C3F3062349
:10BB30000132B0FBF2F25343E268C2F341620132D8
:10BB40005200B3FBF2F3384A93421AD84FF0000880
:10BB5000A36823F003033B43A360FDF755F941F2CB
:10BB600088390746A3686A6803F00C03B3EB820FB9
:10BB70003FF47EAFFDF748F9C01B4845F2D90320DA
:10BB80006AE7A36813F0F00F04D08807DED5AB682E
:10BB9000002BDBD1A36823F0F00343F08003A36004
:10BBA0004FF08008D4E7022F09D113F4003F3FF48F
:10BBB00052AFFFF715FF1C4B9842C7D9EAE713F4C1
:10BBC000806FF4E7B8F1800F01BF124A936823F049
:10BBD000F003936066E7236823F00F033343236089
:10BBE000FDF712F941F288380746236803F00F0386
:10BBF000B3423FF45EAFFDF707F9C01B4045F4D9EF
:10BC0000BDE7A368E96823F4E0630B43A36056E74C
:10BC10000020024000100240165B060830000020A1
:10BC200000127A000024F40000B4C404014B186828
:10BC3000704700BF30000020054B064A9B68C3F3E5
:10BC40000223D35C044A106803F01F03D8407047F6
:10BC5000001002400E5B060830000020054B064A2B
:10BC60009B68C3F3C223D35C044A106803F01F032C
:10BC7000D8407047001002400E5B060830000020DC
:10BC80002DE9F3410446006810F400205AD0254DF8
:10BC9000AB6DD80044D4AB6D43F08053AB65AB6D56
:10BCA00003F080530193019B01261F4F3B6843F42F
:10BCB00080733B60FDF7A8F880463B68D90535D511
:10BCC000D5F8903013F4407320D0226D93421DD0EC
:10BCD000D5F89020D5F8903043F48033C5F89030F3
:10BCE000D5F8903022F4407123F48033D207C5F8A0
:10BCF0009030C5F8901009D5FDF786F841F28838E4
:10BD00000746D5F890309B0740F12981D5F890304F
:10BD1000226D23F440731343C5F8903000200CE0EB
:10BD20000026C2E70010024000700040FDF76CF8EA
:10BD3000A0EB08000228C0D903201EB1AB6D23F090
:10BD40008053AB652368DD0708D588496568D1F85D
:10BD5000882022F003022A43C1F88820990708D5D9
:10BD60008249A568D1F8882022F00C022A43C1F844
:10BD700088205A0708D57D49E568D1F8882022F047
:10BD800030022A43C1F888201F0708D57749256962
:10BD9000D1F8882022F0C0022A43C1F88820DE06AC
:10BDA00008D572496569D1F8882022F440722A4387
:10BDB000C1F888209D0608D56C49A569D1F888206E
:10BDC00022F440622A43C1F88820590608D5674901
:10BDD000E569D1F8882022F440522A43C1F888202E
:10BDE0001A0608D56149256AD1F8882022F4404214
:10BDF0002A43C1F88820DF0508D55C49656AD1F877
:10BE0000882022F440322A43C1F888209E0308D5B6
:10BE10005649A56AD1F89C2022F003022A43C1F8B2
:10BE20009C209D0508D55149E56AD1F8882022F467
:10BE300040222A43C1F8882059050FD54B49256B6C
:10BE4000D1F8882022F440122A43C1F88820B5F5A1
:10BE5000801F02BFCA6842F48012CA601A050FD55B
:10BE60004249656BD1F8882022F440022A43C1F888
:10BE70008820B5F5800F02BFCA6842F48012CA60FC
:10BE8000DF040FD53949A56BD1F8882022F0407224
:10BE90002A43C1F88820B5F1807F02BFCA6842F406
:10BEA0008012CA609E040FD53049E56BD1F8882016
:10BEB00022F040622A43C1F88820B5F1006F02BF2A
:10BEC000CA6842F48012CA605D040FD52749256C08
:10BED000D1F8882022F040622A43C1F88820B5F1C9
:10BEE000006F02BFCA6842F48012CA6019040FD5FD
:10BEF0001E49656CD1F8882022F040522A43C1F8CF
:10BF00008820B5F1805F02BFCA6842F48032CA60FF
:10BF1000DA030FD51549A56CD1F8882022F04042EC
:10BF20002A43C1F88820B5F1804F02BFCA6842F4A5
:10BF30008032CA605B030FD50C4AE16CD2F89C30AA
:10BF400023F440130B43B1F5001FC2F89C3003D11A
:10BF5000D36843F48013D36002B0BDE8F081FCF7EE
:10BF600053FFC01B40457FF6CCAEE5E60010024013
:10BF7000104B9A6B42F480729A639A6B22F480722F
:10BF80009A63D0E90032134382681343C2681343B3
:10BF9000026943EA0243084A53601368416923F483
:10BFA000FE4343EA01231360136843F06003136008
:10BFB000704700BF0010024000200040890001F1DE
:10BFC000804101F514510A607047890001F18041F8
:10BFD00001F5145108687047036A23F0010370B536
:10BFE0000362036A446882690D6822F4803222F099
:10BFF00073022A438D6823F002032B43144DA84299
:10C0000013D005F50065A8420FD005F54065A8429C
:10C010000BD005F58065A84207D005F58065A842DC
:10C0200003D005F50065A8420BD1CD6823F00803C5
:10C030002B4324F44075D1E90546344323F004032F
:10C040002C43446082614A684263036270BD00BF52
:10C05000002C0140036A23F4807370B50362036A05
:10C060004468C2690D6822F4803222F073022A43C8
:10C070008D6823F4007343EA0523154DA84207D0C9
:10C0800005F50065A84203D005F5E055A8420ED19C
:10C09000CD6823F4006343EA052323F4806324F48A
:10C0A0004055D1E90546344345EA041409E0094DF9
:10C0B000A842F4D0084DA842F1D005F58065A84209
:10C0C000EDD04460C2614A68C263036270BD00BFC4
:10C0D000002C01400040014000440140036A23F469
:10C0E000805370B50362036A4468C2690D6822F028
:10C0F000807222F4E64242EA05228D6823F400535E
:10C1000043EA0533144DA84207D005F50065A8425F
:10C1100003D005F5E055A8420ED1CD6823F40043C5
:10C1200043EA053323F4804324F44045D1E905462E
:10C13000344345EA841409E0084DA842F4D0084D80
:10C14000A842F1D005F58065A842EDD04460C261F7
:10C150004A680264036270BD002C01400040014047
:10C1600000440140036A23F4803330B50362036A5C
:10C170004468026D0D6822F4803222F070022A4376
:10C180008D6823F4003343EA0543114DA84213D0D0
:10C1900005F50065A8420FD005F54065A8420BD013
:10C1A00005F58065A84207D005F58065A84203D053
:10C1B00005F50065A84204D14D6924F4803444EAB1
:10C1C0000524446002654A688264036230BD00BF92
:10C1D000002C0140036A23F4801330B50362036A24
:10C1E0004468026D0D6822F0807222F4E04242EA57
:10C1F00005228D6823F4001343EA0553104DA8422D
:10C2000013D005F50065A8420FD005F54065A8429A
:10C210000BD005F58065A84207D005F58065A842DA
:10C2200003D005F50065A84204D14D6924F48024AB
:10C2300044EA8524446002654A68C264036230BDF2
:10C24000002C0140704700000223026880F83D3056
:10C250009168084B0B40062B06D0B3F5803F1EBFFC
:10C26000136843F001031360012380F83D30002080
:10C27000704700BF070001000368DA6842F001025E
:10C28000DA609968064A0A40062A06D0B2F5803F6D
:10C290001EBF1A6842F001021A600020704700BFFA
:10C2A00007000100704770477047704703681A69BC
:10C2B000910710B504460FD5DA6892070CD56FF0D8
:10C2C00002021A61012202779B69990700F0BC8083
:10C2D000FFF7E9FF0023237723681A69520711D576
:10C2E000DA6850070ED56FF004021A610222227735
:10C2F0009B6913F4407F204600F0AC80FFF7D3FF2A
:10C300000023237723681A69110710D5DA6812070A
:10C310000DD56FF008021A6104222277DB699B07B2
:10C32000204600F09D80FFF7BEFF0023237723689F
:10C330001A69D10611D5DA68D2060ED56FF010024F
:10C340001A6108222277DB6913F4407F204600F04F
:10C350008D80FFF7A8FF0023237723681A69D00791
:10C3600008D5DA68D10705D56FF001021A612046B9
:10C3700004F0B4FA23681A69120608D5DA681006C0
:10C3800005D56FF080021A61204600F012FB236889
:10C390001A69D10508D5DA68120605D56FF48072DE
:10C3A0001A61204600F006FB23681A69500608D57A
:10C3B000DA68510605D56FF040021A612046FFF792
:10C3C00074FF23681A69920608D5DA68900605D5C5
:10C3D0006FF020021A61204600F0EAFA23681A6919
:10C3E000D10208D5DA68D20205D56FF480121A613D
:10C3F000204600F0E0FA23681A69900208D5DA684E
:10C40000910205D56FF400121A61204600F0D4FAAB
:10C4100023681A69520208D5DA68500205D56FF40C
:10C4200080021A61204600F0C8FA23681A691102D6
:10C4300022D5DA6812021FD56FF4000220461A6175
:10C44000BDE8104000F0BABAFFF72CFF2046FFF716
:10C450002BFF3FE7FFF726FF2046FFF725FF4FE7BB
:10C46000FFF720FF2046FFF71FFF5EE7FFF71AFFE9
:10C470002046FFF719FF6EE710BD0000294A036848
:10C48000904216D0B0F1804F13D0A2F59432904272
:10C490000FD002F5806290420BD002F5806290428C
:10C4A00007D002F59432904203D002F5E052904258
:10C4B00008D14A6823F070031343CA6823F4407319
:10C4C00013430AE0184A9042F7D002F58062904286
:10C4D000F3D002F580629042EFD04A6923F08003E6
:10C4E000134303608B68C3620B6883620D4B9842F1
:10C4F00013D003F5006398420FD003F540639842D0
:10C500000BD003F58063984207D003F5806398420F
:10C5100003D003F50063984201D10B690363012343
:10C5200043617047002C01400040014010B50446B3
:10C53000A0B190F83D3003F0FF021BB980F83C2019
:10C54000FFF780FE0223206884F83D30211DFFF7AD
:10C5500095FF012384F83D30002010BD0120FCE749
:10C56000036A23F0100370B50362036A44688269AA
:10C570000D6822F0807222F4E64242EA05228D68BC
:10C5800023F0200343EA0513144DA84207D005F514
:10C590000065A84203D005F5E055A8420ED1CD684C
:10C5A00023F0800343EA051323F0400324F440659D
:10C5B000D1E90546344345EA840409E0084DA84220
:10C5C000F4D0084DA842F1D005F58065A842EDD021
:10C5D000446082614A688263036270BD002C01403E
:10C5E000004001400044014038B590F83C30012B38
:10C5F00004464FF0020012D001230C2A84F83C308C
:10C6000084F83D0050D00BD8042A2DD0082A3BD006
:10C61000D2B10123002084F83D3084F83C0038BDBD
:10C62000102A51D0142AF4D12068FFF7D3FD036DEE
:10C630000A6943F400630365036D23F480630365B3
:10C64000036D43EA02234DE02068FFF7C5FC8369D0
:10C650000A6943F008038361836923F0040383615B
:10C66000836913438361D4E72068FFF779FF836907
:10C670000A6943F400638361836923F480638361FF
:10C68000836943EA0223EDE72068FFF7E3FCC3690F
:10C690000A6943F00803C361C36923F00403C3615B
:10C6A000C3691343C361B4E72068FFF717FDC3698B
:10C6B0000A6943F40063C361C36923F48063C361FF
:10C6C000C36943EA0223EDE72068FFF74BFD036DE2
:10C6D0000A6943F008030365036D23F0040303654F
:10C6E000036D1343036594E710B584680A4324F48B
:10C6F0007F4442EA03222243826010BD38B590F89D
:10C700003C30012B04464FF002002CD084F83D0051
:10C710000123206884F83C308268524B13408360C8
:10C720000B68602B6AD01FD8402B00F0818012D894
:10C73000202B03D00CD833F010020ED1826822F4E3
:10C74000401222F070021A4342F00702826004E0B5
:10C75000302B02D1F2E7502B37D00123002084F890
:10C760003D3084F83C0038BDB3F5005F24D00BD8D1
:10C77000702BF2D1CB68D1E90121FFF7B5FF8368B7
:10C7800043F077038360E8E7374A9342D6D00BD86B
:10C79000203A9342D2D004D823F01002B2F5801F81
:10C7A000D7E7324A9342D4E7314A9342C6D023F0C6
:10C7B0002001103A9142CCE7CB68D1E90121FFF783
:10C7C00093FF836843F48043DCE74A68CD68016ADD
:10C7D000036A23F001030362836921F00A0123F055
:10C7E000F00343EA05130A4383610262836823F47A
:10C7F000401323F0700343F05703C3E7036A4D6807
:10C80000C96823F0100303628269036A22F470424C
:10C8100023F0A00343EA051342EA01328261036276
:10C82000836823F4401323F0700343F06703A9E700
:10C830004A68CD68016A036A23F0010303628369D1
:10C8400021F00A0123F0F00343EA05130A43836150
:10C850000262836823F4401323F0700343F047031C
:10C8600090E700BF8800CEFF4000100030001000AD
:10C8700060001000036A10B501F01F0101248C4014
:10C8800023EA04030362036A8A401A43026210BD6A
:10C8900008B500680122FFF7EDFF144B984213D052
:10C8A00003F5006398420FD003F5406398420BD024
:10C8B00003F58063984207D003F58063984203D064
:10C8C00003F50063984203D1436C43F4004343648F
:10C8D0008268074B1340062B06D0B3F5803F1EBF7E
:10C8E000036843F001030360002008BD002C0140F1
:10C8F00007000100FFF7CCBF036A10B501F01F016C
:10C9000004248C4023EA04030362036A8A401A4326
:10C91000026210BD006808B50422FFF7EDFF436C0A
:10C9200043F4004343648268064B1340062B06D051
:10C93000B3F5803F1EBF036843F00103036000208E
:10C9400008BD00BF07000100FFF7E4BF30B590F855
:10C950003C30012B02464FF0020025D082F83D000A
:10C96000124D1068A8424368846807D005F5006539
:10C97000A84203D005F5E055A84203D14D6823F441
:10C9800070032B430D68896823F0007323F0700354
:10C9900024F080042B432143436081600123002065
:10C9A00082F83D3082F83C0030BD00BF002C0140D1
:10C9B00070477047704770477047704770477047BF
:10C9C000704738B50546B8B12423C0F880300368F5
:10C9D0001A68002422F001021A601C605C609C60EE
:10C9E000FFF7EEFFC5F8884085F87C40C5F8804029
:10C9F0002046C5F8844038BD0120FCE7F8B502693F
:10CA00008368C16913434269044613430268406E58
:10CA100015680B430343A34828400343136053683E
:10CA2000E06823F44053034353609F4BA0699A424C
:10CA30001CBF236A1843936823F06E4323F43063CA
:10CA400003439360D06A636A20F00F001843D062FA
:10CA50009648824219D1964AD2F8882002F0030201
:10CA6000022A00F01682032A00F0F581012A00F064
:10CA70000182B1F5004F40F02182FFF7EFF8636AC1
:10CA8000002B40F0938101231DE08A48824236D179
:10CA9000874AD2F8882002F00C02082A00F0F981B7
:10CAA00028D8002A40F0E681B1F5004F40F0888197
:10CAB000FFF7C2F8636A002BE5D0013B0A2BE2D8EE
:10CAC0007D4A32F813306268B0FBF3F0530803EB91
:10CAD0004003B3FBF2F39BB2A3F110014FF6EF72E8
:10CAE00091420AD823F00F022168C3F34203134393
:10CAF000CB604DE00C2A00F0AE81012049E06F4888
:10CB000082420AD16A4AD2F8882002F03002202AF2
:10CB100000F0BF81C5D9302AEDE7694882420AD1C9
:10CB2000634AD2F8882002F0C002802A00F0B18166
:10CB3000B7D9C02ADFE7634882420CD15C4AD2F8F9
:10CB4000882002F44072B2F5007F00F0A281A8D9DB
:10CB5000B2F5407FCFE754498A42CED1544AD2F849
:10CB6000882002F44062B2F5006F22D018D8002A63
:10CB700042D1FFF761F8636A002B43D0013B0A2BD7
:10CB800040D8514A32F81330B0FBF3F0002398B983
:10CB9000002000234FF00112C4E91A232367F8BDD7
:10CBA000B2F5406FA9D1002B5FD108234FF40040AC
:10CBB00002E04BBB45480223656805EB4502824213
:10CBC0009BD8B0EB053F98D8082B96D801A252F815
:10CBD00023F000BF01CD0008FBCA000849CD0008C2
:10CBE000FBCA00087BCD0008FBCA0008FBCA00088E
:10CBF000FBCA000891CD0008FEF7F2FE636A53BB42
:10CC000001232EE00123BFE7013B0A2B0AD8DFE80E
:10CC100003F00670200F11131517191B1D002C4867
:10CC20000223C9E701232948B0FBF3F00223C3E73D
:10CC30000823F8E70A23F6E70C23F4E71023F2E7CA
:10CC40002023F0E74023EEE78023ECE74FF48073E6
:10CC5000E9E70623E7E7013B0A2BD1D81D4A32F862
:10CC60001330B0FBF3F0042391E7013B0A2B0BD800
:10CC7000DFE803F006423D111315323436383A002E
:10CC800008234FF4804097E701234FF40040B0FBA6
:10CC9000F3F0082390E70823F7E70A23F5E70C23CE
:10CCA000F3E700BFF369FFCF008000400038014088
:10CCB0000010024000440040F05A060800480040BE
:10CCC000004C004000500040F05A06080024F400D8
:10CCD00000127A00F05A06081023D6E72023D4E782
:10CCE0004023D2E78023D0E74FF48073CDE70623BB
:10CCF000CBE7764802235FE708234FF400505BE759
:10CD0000FEF79AFF636A002B40D0013B0A2B3DD807
:10CD10006F4A32F81320676800231946FBF7DCFFDF
:10CD2000002305464FF48076780819463A46E5FB1D
:10CD30000601FBF7D1FF674BA0F540729A423FF620
:10CD4000DCAE2368D86023E7636AA3B1013B0A2BFA
:10CD500011D8614A32F81320604800230021FBF704
:10CD6000BBFF002306464FF48077680819462A4621
:10CD7000E6FB0701DDE70122EEE7FEF731FE636A1D
:10CD800023B1013B0A2B01D8554AC2E70122C2E771
:10CD9000636A4BB1013B0A2B06D8524A32F8132082
:10CDA00000234FF40040D9E70122F9E7013B0A2BA9
:10CDB0003FF669AE4C4A84E6012375E0012355E055
:10CDC000FEF73AFF636A002B7DD0013B0A2B7AD82D
:10CDD000464A32F813306268B0FBF3F303EB5203B8
:10CDE000B3FBF2F39BB2A3F110014FF6EF72914245
:10CDF0003FF683AE2268D360CAE6013B0A2B62D8B5
:10CE00003B4AE6E773B1013B0A2B0BD8394A32F8AB
:10CE100013206168314BB3FBF2F303EB5103B3FB17
:10CE2000F1F3DFE70122F4E7FEF7DAFD636A002B96
:10CE300049D0013B0A2B46D82F4ACAE74BB1013BE8
:10CE40000A2B06D82D4A32F8132061684FF40043AC
:10CE5000E1E70122F9E7B1F5004FEFD1002BADD0AA
:10CE6000013B0A2BAAD8264A32F8133061684FF4E6
:10CE700000421BE0B1F5004FD6D1FEF7B1FD636A69
:10CE8000002B3FF400AE013B0A2B3FF6FCAD1D4AE0
:10CE900017E6B1F5004FB5D1002B8DD0013B0A2B21
:10CEA0008AD8194A32F8133061680C4AB2FBF3F29F
:10CEB0004B0803EB4203B3FBF1F30CE6FEF7CEFEA7
:10CEC000636A002B99D1012385E700BF00093D006B
:10CED000F05A0608FFFC0F00F05A06080024F40080
:10CEE000F05A0608F05A0608F05A0608F05A0608E2
:10CEF000F05A0608F05A0608F05A0608F05A0608D2
:10CF0000F05A0608F05A0608F05A0608836ADA074B
:10CF100010B506D50168C46A4A6822F4003222437B
:10CF20004A609C0706D50168046B4A6822F4803287
:10CF300022434A60590706D50168446B4A6822F4C7
:10CF4000802222434A601A0706D50168846B4A682A
:10CF500022F4004222434A60DC0606D50168C46B15
:10CF60008A6822F4805222438A60990606D50168B5
:10CF7000046C8A6822F4005222438A605A060FD554
:10CF80000168446C4A6822F480122243B4F5801F81
:10CF90004A6005D14A68846C22F4C00222434A6088
:10CFA0001B0606D50268C16C536823F400230B43AB
:10CFB000536010BD2DE9F041DDF8188004460E469F
:10CFC00015461F462268D36936EA03030CBF0123C6
:10CFD0000023AB4201D0002019E0B8F1FF3FF2D0AE
:10CFE000FBF712FFC01B404513D923681A6822F4CF
:10CFF000D0721A609A6822F001029A602023C4F865
:10D000008030C4F88430002384F87C300320BDE8ED
:10D01000F081B8F1000FD5D1E7E773B504460026DB
:10D02000C0F88860FBF7F0FE23681B681A07054606
:10D0300017D423681B685B070AD56FF07E43009303
:10D0400000222B464FF480012046FFF7B3FFA0B922
:10D0500020230020C4F8803084F87C00C4F8843099
:10D060000CE06FF07E430093324603464FF400110C
:10D070002046FFF79FFF0028DBD0032002B070BDE1
:10D0800010B5044650B3D0F880301BB980F87C301E
:10D09000FFF795FC22682423C4F88030136823F03E
:10D0A000010313602046FFF7A9FC012816D0A36AEC
:10D0B00013B12046FFF72AFF23685A6822F49042F2
:10D0C0005A609A6822F02A029A601A6842F00102B5
:10D0D00020461A60BDE81040FFF79FBF012010BD39
:10D0E00010B5044670B3D0F880301BB980F87C309E
:10D0F000FFF765FC22682423C4F88030136823F00E
:10D10000010313602046FFF779FC01281AD0A36AB7
:10D1100013B12046FFF7FAFE23685A6822F49042C2
:10D120005A609A6822F022029A609A6842F00802D5
:10D130009A601A6842F0010220461A60BDE8104069
:10D14000FFF76BBF012010BD11F5803F514B1ED181
:10D1500098420BD103F580539A6A42F001029A6219
:10D160009A6A22F001029A62002070474A4B984264
:10D1700040F08D80D3F8282C42F00202C3F8282C0E
:10D18000D3F8282C22F00202C3F8282CECE79842AE
:10D1900025D101292AD1414B1A6822F001021A60D7
:10D1A00000221A605A609A60DA603D4A01F18043B9
:10D1B00082EA9022013B03EBC2039B0003F1804310
:10D1C00003F5023301391A6822F0FF021A600729B9
:10D1D0005DD8DFE801F045484A4D505356592E4B73
:10D1E00098423BD1012905D10833D5E7022905D161
:10D1F0002C4BD1E7022905D12B4BCDE7032905D1D3
:10D200002A4BC9E7032905D1294BC5E7042905D1D4
:10D21000284BC1E7042905D1274BBDE7052905D1D6
:10D22000264BB9E7052905D1254BB5E7062905D1D8
:10D23000244BB1E7062905D1234BADE7072907D1D8
:10D24000224BA9E7224B234A072908BF1346A3E72D
:10D25000214B1F4A082918BF13469DE71C4B9BE72B
:10D260000123436080E71023FBE74FF48073F8E766
:10D270004FF48053F5E74FF48033F2E74FF4801317
:10D28000EFE74FF08073ECE74FF08053E9E70120C0
:10D29000704700BF00000240000402400800024046
:10D2A000800010001C0002401C04024030000240BC
:10D2B000300402404400024044040240580002404E
:10D2C000580402406C0002406C040240800002409E
:10D2D0009404024080040240940002401B4B0B4423
:10D2E000F0B513F8015CD2E902373B4317694659A0
:10D2F0003B4357693B4397693B43D7693B43976A35
:10D300006FF30E163B432C18334343515368E360CD
:10D310001368A3606368156A526A6FF30F032B43A7
:10D3200063600B4B01F1804183EA9023013901EBEB
:10D33000C301890001F1804101F5023100200B6831
:10D3400023F0FF0313430B60F0BD00BF065B06082C
:10D35000800010000023C0E90033C0E90233C0E9B7
:10D360000433C0E90633C0E9083383627047000024
:10D370001C4B98420AD103F560431A6C42F4805268
:10D380001A641A6C22F480521A640CE0164B98420C
:10D390000BD103F5EC339A6B42F480429A639A6B9B
:10D3A00022F480429A6300207047104B984209D1C2
:10D3B00003F5EA339A6B42F400429A639A6B22F4C3
:10D3C0000042EFE70A4B984209D103F554431A6C27
:10D3D00042F400421A641A6C22F40042D4E701209D
:10D3E000704700BF0030014000380040003C004062
:10D3F000003C014003685B0670B502462BD4D1E9BE
:10D4000000363343CE684D690468086A33430E69B9
:10D4100033438E692B433343CE6924F47F44334333
:10D4200024F0BF0403432343136054688B6824F43F
:10D43000706443EA154324F004042343B0F5005F0D
:10D44000536005D00020D36923F40063D36170BD1D
:10D450008B8C1361F6E70120F5E7B0F840309BB202
:10D4600043F43F4343F08003A0F84030002070476E
:10D47000B0F8403023F47E535B045B0CA0F84030DE
:10D480000020704784B010B5044603A880E80E0061
:10D4900000200123A4F84030A4F84000A4F8440080
:10D4A000A4F85000B4F840309BB243F43F4343F03B
:10D4B0008003A4F84030BDE8104004B0704700007D
:10D4C000F0B50A78CD7830F8224024F4EC4424F00A
:10D4D000700424040346240C032D03D8DFE805F070
:10D4E000434B4947012048F280073C4323F8224040
:10D4F00033F82260994CB6B226401643374323F8DE
:10D5000022700E7B03EBC207002E78D1CE8891F8F3
:10D5100001C076087600BCF1000F2FD0B3F8501090
:10D5200017FA81F1A1F8006433F822104E0609D5EC
:10D5300033F8221089B2214041F4004141F0C0018A
:10D5400023F8221033F82210854C89B2012D01EA0C
:10D55000040101D081F0200141F4004141F080013B
:10D5600023F82210B3E044F400742846BBE744F4E7
:10D57000C0640020B7E744F48064FAE7B3F8504091
:10D5800017FA84F4A4F80464B3F850500C6917FA3D
:10D5900085F534BBB5F8061421F4F8410904090CEB
:10D5A00041F40041A5F8061433F822104C040DD5BF
:10D5B00033F8221021F4E04121F070010904090C34
:10D5C00041F4404141F0800123F8221033F8221049
:10D5D00021F4804121F070010904090C81F44051CB
:10D5E000BAE73D2C95BF04F001015E4901EB5401FF
:10D5F000640994BF890241EA842189B2D2E733F8F1
:10D600002260B6B2264046F4014646F0800623F872
:10D610002260B3F85060B1F808C017FA86F62CF013
:10D62000010CA6F800C4B3F8506017FA86F64F89CB
:10D6300027F00107A6F804744978002948D133F887
:10D640002210490409D533F8221089B2214041F44F
:10D65000404141F0800123F8221033F822104F0698
:10D660000DD533F8221021F4E04121F070010904B6
:10D67000090C41F4004141F0C00123F8221033F8B5
:10D68000221021F4E04121F070010904090C41F459
:10D69000004141F0C00123F8221033F8221021F498
:10D6A000804121F070010904090C48F2800481F4E2
:10D6B0004051214323F8221033F8221021F4E04195
:10D6C00021F040010904090C0C4323F82240F0BD6D
:10D6D00033F822104E0409D533F8221089B22140C4
:10D6E00041F4404141F0800123F8221033F8221028
:10D6F00049060DD533F8221021F4E04121F07001E4
:10D700000904090C41F4004141F0C00123F8221042
:10D7100033F82210124C21F4E04121F07001090489
:10D72000090C41F4404141F0800123F8221033F804
:10D73000221089B22140012D18BF81F0200141F44F
:10D74000004141F0800123F8221033F8221021F427
:10D75000804121F070010904090CFDE68F8FFFFF65
:10D76000BF8FFFFF0080FFFF4A780B78097BD9BB92
:10D770000AB330F8232051060DD530F8232022F4C7
:10D78000E04222F070021204120C42F4004242F015
:10D79000C00220F8232030F8232022F4E04222F0B7
:10D7A00040021204120C42F4004242F0800220F8BF
:10D7B00023200020704730F8232052040DD530F884
